:020000040800F2
:10000000781E00200D020008C10C00082909000814
:10001000BD0C00089704000891380008000000009B
:10002000000000000000000000000000FD130008B8
:10003000D504000800000000710D0008752C0008B0
:1000400027020008270200082702000827020008EC
:1000500027020008270200082702000827020008DC
:1000600027020008270200082702000827020008CC
:1000700027020008270200082702000827020008BC
:1000800027020008270200082702000827020008AC
:10009000270200082702000827020008270200089C
:1000A000270200082702000827020008270200088C
:1000B000D92C0008270200082702000827020008A0
:1000C000270200082702000827020008270200086C
:1000D000270200082702000827020008FD2F000859
:1000E000270200082702000827020008270200084C
:1000F000270200082702000827020008270200083C
:10010000270200082702000827020008270200082B
:10011000270200082702000827020008270200081B
:10012000270200082702000827020008270200080B
:1001300000F002F800F05AF80AA090E8000C82449F
:100140008344AAF10107DA4501D100F04FF8AFF27C
:10015000090EBAE80F0013F0010F18BFFB1A43F0A5
:100160000103184760430000804300000A444FF039
:10017000000C10F8013B13F0070408BF10F8014B06
:100180001D1108BF10F8015B641E05D010F8016B4B
:10019000641E01F8016BF9D113F0080F1EBF10F8AF
:1001A000014BAD1C0C1B09D16D1E58BF01F801CBD2
:1001B000FAD505E014F8016B01F8016B6D1EF9D555
:1001C0009142D6D37047000000230024002500266A
:1001D000103A28BF78C1FBD8520728BF30C148BFAA
:1001E0000B6070471FB51FBD10B510BD00F020F9A2
:1001F0001146FFF7F7FF03F05BFB00F03EF903B495
:10020000FFF7F2FF03BC00F03FF900000948804708
:1002100009480047FEE7FEE7FEE7FEE7FEE7FEE7E8
:10022000FEE7FEE7FEE7FEE704480549054A064B00
:1002300070470000792C000831010008780C00207C
:10024000781E0020780E0020780E002010B5431C88
:1002500002E010F8011B71B18107FAD14FF00132B1
:1002600002C88C1A8C4314EAC211F9D0C01A0A06CB
:1002700003D0C01E10BDC01A10BD0A0401D0801EDC
:1002800010BD0902FCD0401E10BD421E12F8013FF5
:10029000002BFBD111F8013B002B02F8013BF9D1F7
:1002A0007047032A40F2308010F0030C00F01580F4
:1002B00011F8013BBCF1020F624498BF11F801CB69
:1002C00000F8013B38BF11F8013BA2F1040298BFCE
:1002D00000F801CB38BF00F8013B11F0030300F038
:1002E0004A80083AC0F0088051F8043B083A51F8B7
:1002F00004CBA0E80810F5E7121D5CBF51F8043BE1
:1003000040F8043BAFF30080D20724BF11F8013B53
:1003100011F801CB48BF11F8012B24BF00F8013BB5
:1003200000F801CB48BF00F8012B70474FF00002E6
:100330000429C0F0128010F0030C00F05080CCF1C2
:10034000040CBCF1020F18BF00F8012BA8BF20F865
:10035000022BA1EB0C0100F042B85FEAC17C24BF84
:1003600000F8012B00F8012B48BF00F8012B704763
:1003700070477047704710B5203AC0F00B80B1E865
:100380001850203AA0E81850B1E81850A0E81850CA
:10039000BFF4F5AF5FEA027C24BFB1E81850A0E8D3
:1003A000185044BF18C918C0BDE810405FEA827CED
:1003B00024BF51F8043B40F8043B08BF7047D20704
:1003C00028BF31F8023B48BF11F8012B28BF20F8A5
:1003D000023B48BF00F8012B70474FF0000200B508
:1003E000134694469646203922BFA0E80C50A0E858
:1003F0000C50B1F12001BFF4F7AF090728BFA0E806
:100400000C5048BF0CC05DF804EB890028BF40F8D1
:10041000042B08BF704748BF20F8022B11F0804F13
:1004200018BF00F8012B704700487047140C0020DB
:100430007546FFF7F9FFAE4605006946534620F0C2
:100440000700854618B020B5FFF7EEFEBDE8204056
:100450004FF000064FF000074FF000084FF0000B80
:1004600021F00701AC46ACE8C009ACE8C009ACE833
:10047000C009ACE8C0098D4670470446AFF3008060
:100480002046FFF7BCFE000001491820ABBEFEE786
:1004900026000200704700BFFEE7000070B502466C
:1004A0000C46FF25FF2309E012F8010B80EA050145
:1004B0000648405C80EA03050548435C2000A4F13F
:1004C0000106F4B2F0D143EA052070BD150000200A
:1004D00015010020704700000149C8607047000006
:1004E0000020024030B5044604254FF4302000F0CF
:1004F0009FF80546042D17D10C48006940F0020012
:100500000A49086108464461006940F040000861FA
:100510004FF4302000F08CF805460448006941F69D
:10052000FD71084001490861284630BD00200240A5
:1005300004200B49C96801F0010109B101200EE056
:100540000749C96801F0040109B1022007E0044924
:10055000C96801F0100109B1032000E004207047D0
:10056000002002400348006940F080000149086112
:1005700070470000002002400549096821F0100181
:10058000034A116011460968014311607047000079
:100590000020024070B504460D460426F00200F02B
:1005A00047F80646042E11D10948006940F00100C1
:1005B000074908612580F00200F03AF80646044831
:1005C000006941F6FE71084001490861304670BD7E
:1005D000002002402DE9F04105460C461646F7B2D0
:1005E00003E015F8010B04F8010B3000A6F101013E
:1005F0008EB2F6D13946204600F060F8BDE8F081B1
:1006000001460020034A106800F0380008431060DB
:100610007047000000200240024803494860034838
:10062000486070472301674500200240AB89EFCD49
:1006300000B502460423FFF77BFF034603E0FFF704
:1006400077FF0346521E012B01D1002AF7D102B9D0
:100650000523184600BD2DE9F04107460C46154616
:10066000284605EBD071C1F34F05FFF7D5FF3520C4
:10067000FFF732FF3846FFF735FFE9B22046FFF7B4
:100680000DFF80464FEA2821A81E2154681E04F859
:1006900000800AE014F8016B14F8011B46EA0126F9
:1006A00031463846FFF776FFBF1C2800A5F101014F
:1006B0008DB2EFD1FFF756FFBDE8F0812DE9F04193
:1006C00005460C46E1B22846FFF7E8FE0646A01EA6
:1006D000295C601E285C41EA0027BE4204D0182233
:1006E00002490348FFF7DDFDBDE8F0810050000836
:1006F000240700202DE9F0410246002500260020B5
:1007000000230024002791F803C00CF00F0591F896
:1007100003C00CF0100CBCF1000F03D091F802C024
:100720004CEA050591F800C0BCF1000F31D0146807
:1007300000202BE04FF0010C0CFA00F3B1F800C0E0
:100740000CEA03069E4220D183004FF00F0C0CFAF6
:1007500003F7BC4305FA03FC4CEA040491F803C018
:10076000BCF1280F06D14FF0010C0CFA00FCC2F8C6
:1007700014C00AE091F803C0BCF1480F05D14FF056
:10078000010C0CFA00FCC2F810C0401C0828D1D3A0
:100790001460B1F800C0BCF1FF0F34DD54680020D4
:1007A0002EE000F1080C4FF0010808FA0CF3B1F844
:1007B00000C00CEA03069E4221D183004FF00F0CCB
:1007C0000CFA03F7BC4305FA03FC4CEA040491F865
:1007D00003C0BCF1280F05D100F1080C08FA0CF891
:1007E000C2F8148091F803C0BCF1480F07D100F1A2
:1007F000080C4FF0010808FA0CF8C2F81080401CF1
:100800000828CED35460BDE8F081024600209368EA
:100810000B400BB1012000E00020704741617047A0
:100820000161704708B56946192002F037F89DF854
:10083000000000F0800068B19DF80000C043401C3B
:10084000C0F385000849087008460078404240B26D
:10085000087004E09DF80000800803490870024811
:1008600090F9000008BD0000A40200202DE9FC5F03
:10087000FFF7D8FF002825DA224890F9000003F09E
:100880002EFB82468B4620484079204901EBC00070
:10089000D0E90063324600201D4903F04BFB80463F
:1008A00000221C4B03F0BEF8044600221A4B03F052
:1008B000B9F852465B46CDE9000103F0B3F8174A98
:1008C00003C21AE0164801681A311A2001F0E6FF47
:1008D00013490968887E03F019FB04460D460A484F
:1008E0004079104901EBC000D0E900633246204650
:1008F000294603F097F8094A03C2084903C9BDE82D
:10090000FC9F0000A4020020800200200843000891
:100910000000244000C065C000001040A802002074
:100920009C0200205843000800BFFEE708B50121E3
:10093000082000F06BFA4FF400710948FFF76EFFD2
:1009400010208DF8030003208DF802004FF4007092
:10095000ADF8000069460248FFF7CCFE08BD000074
:10096000000C01401FB51C208DF80C0000208DF8F4
:100970000D000F208DF80E0001208DF80F0003A848
:1009800000F0AAF90121084600F020FA4FF080405B
:1009900002F0CEF94FF0804002F0D8FA4720ADF8CF
:1009A00000000020ADF80600ADF8020040F2E7308C
:1009B000ADF8040069464FF0804002F0CDFA012105
:1009C000880702F0A2F900214FF0804002F091F96F
:1009D00001221146900702F0B0FA0121880702F0C7
:1009E0009AF91FBD08B50121202000F00FFA04205C
:1009F000ADF8000010208DF8030003208DF80200F0
:100A000069460448FFF776FE04210248FFF708FF15
:100A100008BD00000014014010B50446204601F056
:100A2000EFFD10BD70B505460C4601F059FF0128D9
:100A300003D14021122002F059F8294801681231EF
:100A4000122001F02BFF26480068807C00F0200077
:100A5000202806D12021122002F048F80020207022
:100A600070BDFFF7DFFEFFF701FF1D480168103181
:100A7000102001F013FF1B48407A012819D11848B3
:100A8000006890F822001849088015480068007C2A
:100A900013490968487312480068417B0D2002F031
:100AA00025F80F48006890F82210104801F02CFF3C
:100AB00013E02146132001F0F1FE09480068007C94
:100AC00007490968487306480068417B0D2002F019
:100AD0000DF82178284601F017FF00BFC0E700009D
:100AE0009C02002080020020A2020020EC080020CE
:100AF00010B5012001F0DAFCBF20254909684874CF
:100B000023480068417C112001F0F0FFFF202049BC
:100B1000096881F824001E48006890F824102420F9
:100B200001F0E4FF3F201A49096881F83F00B02036
:100B30001749096881F840000222154801683F31D1
:100B4000402001F0DBFF1348807A012803D1062002
:100B500001F0ACFC0EE00E480068C07B0C4909684F
:100B600048730B480068417B0D2001F0BFFF052052
:100B700001F09CFC4FF480710748FFF7D7FB054854
:100B80004069064908600A200549086010BD000058
:100B90009C02002080020020EC080020B802002007
:100BA000B40200202DE9F04106460D4606B115B904
:100BB0000120BDE8F081012001F078FCF7203649E2
:100BC0000968487400203449096881F824003248D3
:100BD000006890F82410242001F088FF2E48006857
:100BE000417C112001F082FF2B48006880F82250E0
:100BF0002948006890F82210222001F077FF002099
:100C000025490968887324480068817B0E2001F01B
:100C10006DFF21480068807B1F49096848731E48A2
:100C20000068417B0D2001F061FF1B48006890F8CF
:100C30002210304601F07AFF7F201749096881F8B9
:100C40003F0030201449096881F840000222124810
:100C500001683F31402001F051FF032001F026FCE4
:100C600040F6B83407E0641E002700E07F1C41F224
:100C700011108742FAD301F033FE08B9002CF2D1EB
:100C80000CB9022095E70821122001F02FFF012066
:100C900001F00CFC00208CE79C02002010B50446FB
:100CA0003F210B2001F022FF802001F02FFC0120CA
:100CB00001F046FC60B201F0CFFC10BD00BFFEE7C2
:100CC000704710B500214FF0006000F047F84FF476
:100CD000E06000F039F810BD70B5002100230F224C
:100CE000C47804B3154C246804F4E064C4F5E064EB
:100CF000210AC1F10403CA40447804FA03F184785C
:100D00001440214309010E4C0678A155047804F0E3
:100D10001F050124AC4005786D11AD0005F1E025FB
:100D2000C5F8004109E0047804F01F050124AC4037
:100D3000044D0678761145F8264070BD0CED00E0B4
:100D400000E400E080E100E002490143024A116052
:100D5000704700000000FA050CED00E0024A0A406E
:100D60000243024B1A60704780FFFF1F08ED00E04E
:100D70007047000008B50121042000F047F84FF447
:100D80008070ADF8000010208DF80300694604481B
:100D9000FFF7B0FC4FF480710148FFF73FFD08BD3D
:100DA0000008014010B54FF480710248FFF738FD8C
:100DB00010BD00000008014010B54FF480710248DA
:100DC000FFF72CFD10BD00000008014029B1064AC4
:100DD000D2690243044BDA6104E0034AD2698243D8
:100DE000014BDA61704700000010024029B1064A49
:100DF00012690243044B1A6104E0034A12698243F8
:100E0000014B1A61704700000010024029B1064AE8
:100E100092690243044B9A6104E0034A9269824357
:100E2000014B9A61704700000010024029B1064A48
:100E3000D2680243044BDA6004E0034AD26882437A
:100E4000014BDA60704700000010024010B500F05E
:100E500031F84FF4803000F0EFF800F04BF9044621
:100E600000BF012CFDD124D1002000F0D9F80020D2
:100E700000F014F9A00200F005F90220FFF7C0FB12
:100E80001020FFF779FB4FF4E011200400F018F96F
:100E9000012000F00FF900BF392000F09BF8002876
:100EA000FAD0022000F01AF900BF00F0B1F80828CB
:100EB000FBD110BD0F48006840F001000D490860EB
:100EC000084640680C4908400A49486008460068DE
:100ED0000A490840074908600846006820F4802055
:100EE00008600846406820F4FE0048604FF41F0088
:100EF00088607047001002400000FFF8FFFFF6FE18
:100F000030B500210022002400232D4D6D6805F02E
:100F10000C0121B1042905D0082923D105E0294D70
:100F2000056022E0274D05601FE0254D6D6805F442
:100F30007012234D6D6805F48034022505EB924252
:100F40001CB9214D554305600BE01D4D6D6805F43E
:100F500000351DB11C4D5543056002E0194D554348
:100F6000056002E0174D056000BF00BF144D6D68BD
:100F700005F0F0010909154D6B5C0568DD40456021
:100F80000F4D6D6805F4E061090A104D6B5C456812
:100F9000DD4085600A4D6D6805F46051C90A0B4D4E
:100FA0006B5C4568DD40C560054D6D6805F44041EA
:100FB000890B074D6B5CC568B5FBF3F5056130BD6A
:100FC0000010024000127A0000093D0012030020C8
:100FD0002203002010B501460022002300204A1100
:100FE000012A02D1094C236806E0022A02D1074CEB
:100FF000236A01E0054C636A01F01F02012494405A
:101000001C400CB1012000E0002010BD0010024087
:101010000248406800F00C007047000000100240D9
:1010200001460020034A506820F0F0000843506059
:1010300070470000001002401149096821F4803116
:101040000F4A11601146096821F480211160B0F542
:10105000803F03D0B0F5802F0ED106E00849096823
:1010600041F48031064A116007E00549096841F4FE
:10107000A021034A116000E000BF00BF70470000DC
:101080000010024001460020034A506820F4E0604E
:1010900008435060704700000010024001460020E5
:1010A000034A506820F4605040EAC1005060704725
:1010B00000100240014908667047000000004242EB
:1010C00002460020044B586820F47C1042EA0103D9
:1010D0001843014B58607047001002400146002041
:1010E000034A506820F00300084350607047000036
:1010F0000010024038B5002000900024002500BFF9
:101100003120FFF767FF05460098401C00900098CB
:10111000B0F5A06F01D0002DF2D03120FFF75AFFBB
:1011200008B1012400E00024204638BD2DE9F0413B
:1011300004460E46224806710079401E215C204874
:101140000079801E205C41EA00281D480079801E3D
:10115000C1B22046FFF7A2F90746B84527D161780A
:1011600017480079001F814221D120781549897BD9
:10117000884223D1002505E0A81C205C124948556F
:10118000681CC5B20E480079001FA842F4DC0C4868
:101190000079001F0A49087102200C4908700C48A8
:1011A0000068401C0A49086002F092FA06E001203B
:1011B0000649087041020748FFF730FBBDE8F0819F
:1011C000EC09002024070020250600201400002040
:1011D00008000020000C0140114812490860124824
:1011E0004860124888601248C86012480861124876
:1011F0004861124888611248C86112480862124862
:101200004862124888621248C8621248086312484D
:101210004863124888631248C86308467047000054
:10122000FD1A00083C07002035290008952A00080F
:10123000D91A0008712A000885280008FF13000841
:10124000C11A0008A91A00081D2900086D29000804
:1012500051290008B12A0008D52A000809140008FD
:101260003D2A000810B510210148FFF7D9FA10BD3A
:101270000008014010B510210148FFF7CFFA10BD5A
:101280000008014021B1028842F04002028004E0DF
:1012900002884FF6BF731A400280704700B585B0D0
:1012A00001210803FFF7B2FD00F02EF801F0BCFCAD
:1012B0002820ADF80C000020ADF800004FF482703B
:1012C000ADF802000020ADF80400ADF80600ADF85E
:1012D00008004FF40070ADF80A000020ADF80E00D1
:1012E0000720ADF810006946064800F02FF80121EC
:1012F000044800F061F801210248FFF7C3FF05B080
:1013000000BD00000030014008B501210420FFF7B6
:101310007DFDE020ADF8000003208DF802001820CC
:101320008DF8030069460848FFF7E4F91020ADF88E
:1013300000008DF8030069460348FFF7DBF9102130
:101340000148FFF76DFA08BD0008014010B5002202
:10135000028802F441520B884C8823438C88234333
:10136000CC8823430C8923434C8923438C89234312
:10137000CC8923431A430280838B4FF2FF742340AE
:1013800083830B8A038210BD00BF0A48008900F0E6
:1013900002000028F9D0FF200649888100BF0548D7
:1013A000008900F001000028F9D002488089C0B20D
:1013B000704700000030014021B1828842F00402F1
:1013C000828004E082884FF6FB731A408280704767
:1013D00000BF0949098901F002010029F9D0064935
:1013E000888100BF0449098901F001010029F9D071
:1013F000014989897047000000300140704710B5ED
:1014000001F06EFA10BD000010B5044603480078E4
:1014100010B12046FFF700FB10BD000018020020AD
:10142000014903C9704700005802002070B5054605
:101430000C46064800882080002004490880228845
:1014400003492846FEF72DFF70BD00005002002022
:10145000EC07002010B50124F84800780C287DD254
:10146000DFE800F006074DADFDFCFBFAF9F8F7F6F2
:1014700072E2F348006890F8300000F01000102885
:1014800005D14C20EE49096881F8400004E00C20A9
:10149000EB49096881F84000E120E949096881F8D1
:1014A00041000222E64801684031402001F026FB5D
:1014B000052000F0AFFA4FF48071E248FEF736FFE6
:1014C000E1480068E1490860A020DD49096881F829
:1014D0003500DB48006890F83510352001F006FB38
:1014E0000020DB490870DB490870DB490870DB49E4
:1014F0000870DB4908800320D04908702CE201F015
:1015000001FA012808D1D248007828B90120D04931
:1015100008700A20D349086001F0F0F901281FD1B2
:10152000CB48007801281BD1CA480078C0B90120F7
:10153000C849087000F048FACB4A03C200F01CFA10
:10154000CA49086000F058FAC94908700A20C94918
:101550000860C44908600320B84900E0FBE1087056
:10156000BC480078B0B9BA480078012812D1BD480B
:101570000068C0F10A00B549096888420AD901200B
:10158000AE490870AE480068407B40F020010D2055
:1015900001F0ACFAAF48007880B9AD48007868B97E
:1015A000AD48007850B9B3480068C0F10A00A649B8
:1015B0000968884202D90520A0490870CCE1A848F2
:1015C0000088B0F5807F03DD06209C490870C3E1E8
:1015D00001F092F901285CD1A1480088A8B99F4880
:1015E000007890B99648006890F8300000F08000CC
:1015F000802804D101219A4801F086F905E090483D
:10160000006890F832009649088095480088934910
:101610000978401A8A49096891F8351001F03F01AC
:10162000884220DD864A126892F8352002F03F0198
:10163000844A8A4B1B78D01801F066F9804800680C
:1016400090F8350000F03F0084490978084407E02D
:101650007CE176E12CE1D8E0B0E09DE08AE081E039
:101660007E49087015E07E4A12787C4B1B78D21AAE
:10167000D1B2744A794B1B78D01801F045F97848FB
:10168000007876490978401A744909780844734902
:10169000087001F025F9012855D10A207549086024
:1016A0006F48008890BB6D48007878BB644800683C
:1016B00090F8300000F08000802804D101216848B3
:1016C00001F022F905E05E48006890F832006449B4
:1016D0000880634A1278614B1B78D21AD1B2594AFA
:1016E0005E4B1B78D01801F00FF95D4800785B491C
:1016F0000978401A59490978084458490870012066
:101700005549087004204D4908701CE0FFE7544A11
:101710001278524B1B78D21AD1B24A4A4F4B1B78DF
:10172000D01801F0F1F84E4800784C490978401A79
:101730004A49097808444949087001204649087017
:1017400004203E4908704448007850B94948006870
:10175000C0F10A003C490968884202D9052037498E
:101760000870F9E000203D490870012033490870F5
:101770000224F1E0002039490870394908803048D6
:101780000068407B40F020010D2001F0AFF90120FE
:101790002A4908700324DFE00020304908703049EE
:1017A000088027480068407B40F020010D2001F0B0
:1017B0009DF90120214908700624CDE0012020492F
:1017C000096881F8400020201D49096881F841001E
:1017D00002221B4801684031402001F08FF9982017
:1017E0001749096881F835001548006890F83510E8
:1017F000352001F07BF9032000F00CF908200F4997
:10180000087000201C490870A6E00D48006890F898
:10181000300000F08000802803D10121174801F03A
:1018200085F91648008800282CDD144800884028D7
:1018300028DC124800781249087026E04102002096
:101840003C020020EC070020440200204802002057
:101850004C0200204D0200204E02002052020020C7
:10186000500200206C02002058020020600200207C
:101870006402002068020020530200207002002051
:10188000400200202020364908703548017835484C
:1018900001F04CF93448007831490978084432495C
:1018A00008700A203149086009203149087053E066
:1018B00001F022F870BB2F4800882B490978401AA4
:1018C0002749097888420FDD2649274A1278881867
:1018D0002349097801F02AF923480078204909783A
:1018E00008442149087015E0224A12781E4B1B78E3
:1018F000D21AD1B21B4A1C4B1B78D01801F016F932
:101900001C48007818490978401A17490978084492
:101910001549087000F0E4FF012807D10A20134997
:10192000086013490870012000F074F80F4800683F
:10193000C0F10A00B0F57A7F02D90B200C4908707B
:101940000AE000200A490870042405E00020084944
:101950000870052400E000BF00BF204610BD000055
:1019600040020020EC0700205302002074020020F7
:1019700041020020700200202DE9F04702221048A9
:1019800001681B311B2000F092FF0D490968097F97
:101990000B4A1268D27E41EA022002F0A0FA804689
:1019A00002F040FA824602F09AFA06460022054BFF
:1019B00002F0C0FA044602F035FABDE8F0870000F4
:1019C0003C02002080844E4070B50A480168113105
:1019D000112000F063FF07490968487C02F096FA7D
:1019E000044600224FF0804302F0C4F881F0004129
:1019F00070BD00003C02002010B5054801680C31A4
:101A00000C2000F04BFF02480068007B400910BD2D
:101A10003C02002070B50446002513480068407859
:101A200020F0F8001149087008460078844219D067
:101A3000032C01D1012500E000250D4800788542E6
:101A400001D00B48057008480068407800F0F800A5
:101A5000204305490968487003480068417801201F
:101A600001F044F870BD00003C0200207802002024
:101A700079020020014908707047000041020020EF
:101A800070B504460D460548058002882146044885
:101A9000FEF707FC07200349087070BD70020020A4
:101AA000EC0700204102002010B50448007810B96E
:101AB000FFF7B6FC10BDFEF7D9FEFBE718020020C9
:101AC00010B50448007808B900BFFEE7FEF7AAFE8B
:101AD00010BD00001802002070B504460D460648EF
:101AE000007820B929462046FFF7A0FC03E02946EC
:101AF000204600F04FF870BD180200202DE9F0419B
:101B00001B481C4908601C49086000F013FF1B4972
:101B100089790904194AD27941EA0221174A92794E
:101B200041EA020002F0DBF90646154A154B02F0C5
:101B300001FA044602F0A6F9134908600846006855
:101B4000124908600D48407A88710C48C07A487183
:101B50000A48C07B40B2087101200D490870084650
:101B6000007800F00DFF00F029F8BDE8F0810000DA
:101B70007C0700203C0200209C020020240700205B
:101B800014AE47E17A844E401C02002080020020FF
:101B90001802002070B505460C46064800882080D3
:101BA000002004490880228803492846FEF779FB73
:101BB00070BD0000A2020020EC08002010B500203B
:101BC0003249087000F0EEFB6F223149012000F02D
:101BD0006EFE20202F49096808736F222C490120CE
:101BE00000F08CFF2C49086800F00AFD2A4988792A
:101BF00000F0D8FD2849C87900F0DEFB2649097AB3
:101C000009B1012100E00021084600F0C5FC22498D
:101C1000487900F0A9FD2049497A09B1012100E085
:101C20000021084600F0E8FB40F2FF3000F0E8FD3C
:101C30001949087E00F0D0FC012000F0FBFB16489B
:101C40000068164988420DD9002000F05FFC002092
:101C500000F076FC0E201049087191F9040000F0A4
:101C6000FBFC0EE03F210B2000F040FF802000F045
:101C70004DFC012000F064FC074991F9040000F0DC
:101C8000EBFC012000F012FC10BD0000A0020020BF
:101C90007D0700209C02002080020020008F42333C
:101CA0002DE9FE4F01200290FB4800780B2874D2EA
:101CB000DFE800F0060774C9FDFCFBFA73F9F800D1
:101CC0002CE3012000F0F2FB9D20F44909684874E0
:101CD000F2480068417C112000F008FFF048C07A0B
:101CE000012816D1EE48007BEC49096881F82400F0
:101CF000EA4801681C311C2000F0D0FDE749096862
:101D0000097F01F03F01E74A52F8210000F078FC1A
:101D100004E0FF20E149096881F82400DF480068F9
:101D200090F82410242000F0E1FE0020DB4909682F
:101D300081F83F008020D949096881F840000222DB
:101D4000D64801683F31402000F0D8FED448807A60
:101D5000012803D1062000F0A9FB0EE0CF4800685F
:101D6000C07BCE4909684873CC480068417B0D2090
:101D700000F0BCFE052000F099FB4FF48071CA48CA
:101D8000FEF7D4FAC6484069C84908600A20C84925
:101D900008600220C0490870C0E2BEE200F0A0FD69
:101DA00001281DD10A20C2490860BD48C07A012817
:101DB0000FD1BA4801681C311C2000F06FFDB749F3
:101DC0000968097F01F03F01B64A52F8210000F08E
:101DD00017FC4021122000F089FE0320AE49087054
:101DE00000F08CFD01281ED10A20B1490860AC48E2
:101DF000C07A01280FD1A94801681C311C2000F0CD
:101E00004DFDA6490968097F01F03F01A54A52F836
:101E1000210000F0F5FB0221122000F067FE00F027
:101E2000B3FAA44908709E48807A01280AD1A048D4
:101E30000068C0F10A009D490968884202D904205F
:101E4000954908706AE2954801681231122000F045
:101E500025FD92480068807C00F0200020280ED1EB
:101E60002021122000F042FE8D48807A012802D104
:101E70008949087002E00220874908704EE201A9F2
:101E8000192000F00BFD9DF8040000F08000A0B1C7
:101E90009DF80400C043401CC0F3850086490870CB
:101EA000084605E01DE2F8E1EEE1C5E14AE143E163
:101EB0000078404240B2087004E09DF804008008B9
:101EC0007D490870764800687C49884246D27A4845
:101ED00090F90000002825DA774890F9000001F019
:101EE000FEFF04460D466E484079754901EBC0007F
:101EF000D0E9006332460020724902F01BF88246A6
:101F00000022714B01F08EFD0022704BCDE90001E3
:101F100001F088FD804622462B4601F083FD6C4A85
:101F200003C261E05D4801681A311A2000F0B6FC76
:101F30005A490968887E01F0E9FF04460D46584871
:101F40004079644901EBC000D0E900633246204685
:101F5000294601F067FD5E4A03C245E0564890F904
:101F60000000002825DA544890F9000001F0B7FF7E
:101F7000804689464A484079514901EBC001D1E980
:101F80000063324600204F4901F0D4FF044600228E
:101F90004D4B01F047FD00224F4BCDE9000101F010
:101FA00041FD824642464B4601F03CFD484A03C291
:101FB0001AE03A4801681A311A2000F06FFC3749DC
:101FC0000968887E01F0A2FF04460D463448407936
:101FD000424901EBC000D0E9006332462046294661
:101FE00001F020FD3A4A03C22D48807A01282FD102
:101FF0002A480068C07B2949096848732748006857
:10200000417B0D2000F072FD2548407A01280DD15A
:102010002248006890F82200314908801F48006873
:1020200090F82210204800F06FFC78E01B4801680F
:102030001331132000F032FC18480068C07C284996
:10204000088016480068C17C174800F05DFC66E017
:10205000124801681031102000F020FC1048407A2E
:1020600001283FD10D48006890F822001C490880E3
:102070000A480068007C09490968487307480068F5
:10208000417B0D2000F032FD0448006890F82210DA
:10209000054800F039FC42E0A00200209C0200202C
:1020A00080020020F8430008EC080020B80200205D
:1020B000B4020020B0020020A4020020008F4233AE
:1020C000084300080000244000C065C00000104024
:1020D000A80200205843000800001840A843000848
:1020E000A20200208F4801681331132000F0D6FBB4
:1020F0008C480068C07C8C4908808A480068007C55
:1021000088490968487387480068417B0D2000F0C2
:10211000EDFC84480068C17C844800F0F5FB8448ED
:10212000807A012802D18349087002E002208149A7
:10213000087002200290F1E001207E49087003201F
:102140000290EBE0012000F0B1F97948C07A012853
:102150001AD1F5207349096848747548007B7149A4
:10216000096881F824006F4801681C311C2000F0C8
:1021700095FB6C490968097F01F03F016E4A52F8EE
:10218000210000F03DFA08E0F7206649096848742C
:1021900000206449096881F824006248006890F8CA
:1021A0002410242000F0A2FC5E480068417C11202D
:1021B00000F09CFC614800785A49096881F82200C7
:1021C0005848006890F82210222000F08FFC002070
:1021D00054490968887353480068817B0E2000F0D9
:1021E00085FC50480068807B4E49096848734D481B
:1021F0000068417B0D2000F079FC4A48006890F8A7
:1022000022104A4800F092FC41204649096881F8B2
:102210003F0000204349096881F8400002224148FC
:1022200001683F31402000F069FC032000F03EF9D6
:1022300006204049087071E000F052FB012806D1E9
:102240000821122000F052FC07203A49087000F0E3
:1022500055FB012817D13648C07A01280FD13148E3
:1022600001681C311C2000F019FB2E490968097F08
:1022700001F03F01304A52F8210000F0C1F902217B
:10228000122000F033FC49E0012000F00FF900209B
:10229000284908700420029040E0012000F006F96F
:1022A000FA202049096848741E480068417C1120C2
:1022B00000F01CFC00201B49096881F83F00194907
:1022C000096881F840000222164801683F31402029
:1022D00000F014FC072000F0E9F80A201549087006
:1022E0001CE000F00DFB012816D10421122000F0A3
:1022F000FDFB00F007FB012809D10121122000F0AD
:10230000F5FB01200B4908700820029004E0002032
:10231000084908700720029000E000BF00BF029843
:10232000BDE8FE8F9C020020A2020020EC080020E5
:1023300080020020A0020020F8430008BC02002018
:102340002DE9F0410D4801681B311B2000F0A6FA71
:102350000A490968C87E01F0D9FD04460D460848BF
:102360004079084901EBC000D0E9006332462046BD
:10237000294601F057FBBDE8F08100009C020020D7
:1023800080020020A843000810B5054801680C3100
:102390000C2000F083FA02480068007B400910BD61
:1023A0009C02002010B5034801684131422000F032
:1023B00075FA10BD9C02002010B504460C48016857
:1023C0001D311D2000F06AFA09480068407F00F0C6
:1023D000F10040EA4400064909684877044800686B
:1023E000417F1D2000F082FB0248C47110BD000037
:1023F0009C0200208002002010B504460B480168B2
:102400001D311D2000F04AFA08480068407F00F0A6
:10241000FE00204305490968487704480068417F69
:102420001D2000F063FB0248447210BD9C02002096
:102430008002002010B504460C4801682631262091
:1024400000F02CFA0948006890F8260000F0F70028
:1024500040EAC4000549096881F82600034800687D
:1024600090F82610262000F041FB10BD9C020020B1
:1024700010B504460C4801683031312000F00EFAE6
:102480000948006890F8300000F0F8002043064941
:10249000096881F830000448006890F83010312055
:1024A00000F024FB10BD00009C02002070B5044623
:1024B000002513480068407820F0F80011490870A2
:1024C00008460078844219D0032C01D1012500E090
:1024D00000250D480078854201D00B48057008485A
:1024E0000068407800F0F80020430549096848700A
:1024F000034800684178012000F0F8FA70BD000040
:102500009C020020BE020020BF02002010B504463D
:102510000A4801680931092000F0C0F9074800683D
:10252000407A00F07F00204304490968487203485C
:102530000068417A092000F0D9FA10BD9C02002001
:1025400010B50446134801684C314D2000F0A6F93F
:10255000104801680931092000F0A0F90D48006811
:10256000407A00F08000802807D1012C0AD1872012
:102570000849096881F84C0004E08420054909688D
:1025800081F84C000348006890F84C104D2000F092
:10259000ADFA10BD9C02002010B504460C4801683D
:1025A0001E311E2000F07AF909480068807F00F093
:1025B000FB0040EA840006490968887704480068FF
:1025C000817F1E2000F092FA0248047210BD0000C4
:1025D0009C0200208002002010B5044606480068D6
:1025E00080F822400448006890F82210222000F071
:1025F0007DFA0248047610BD9C0200208002002073
:102600002DE9F041044611480460204601F07EFCAB
:10261000054600220E4B01F0ADFA074601F032FCF0
:102620000446200C0B4909688871200A0949096889
:10263000C871084909680C72032206480168891D9F
:10264000062000F05BFABDE8F08100008002002067
:1026500080844E409C02002010B504463D4801682D
:102660000931092000F01AF93A4801684C314D202F
:1026700000F014F937480068407A00F080008028A4
:1026800041D13448006890F84C0000F0870087285A
:102690001CD1052C00DA0524142C00DD14242D484F
:1026A0000068407A00F08F0040F070002949096806
:1026B000487228480068407A00F0F000611F01F07D
:1026C0000F0108432349096848723AE0022C00DAF6
:1026D0000224112C00DD11241E480068407A00F00D
:1026E0008F0040F070001B49096848721948006863
:1026F000407A00F0F000A11E01F00F0108431549D7
:10270000096848721DE0B4F1FF3F01DA4FF0FF3471
:102710000E2C00DD0E240F480068407A00F08F0078
:1027200040F070000B49096848720A480068407A16
:1027300000F0F000611C01F00F0108430549096831
:10274000487204480068417A092000F0CFF9024835
:10275000047110BD9C020020800200200149087015
:1027600070470000A002002010B504460B48016825
:102770001D311D2000F092F808480068407F64F386
:102780001F1006490968487704480068417F1D20EA
:1027900000F0ACF90248447110BD00009C0200201A
:1027A0008002002010B504460C2C01DD0C2402E050
:1027B000062C00DA0624062C03D10520FFF758FE6C
:1027C00002E00320FFF754FE0B4801681E311E2073
:1027D00000F064F808480068807F64F31F10064921
:1027E0000968887704480068817F1E2000F07EF920
:1027F0000248847110BD00009C020020800200206D
:1028000010B5044602220F4801681E311E2000F058
:102810004EF80C480068807F00F0FC006FF0FC016F
:1028200001EA2421084307490968887705490968AE
:10283000CC770222034801681E311E2000F05EF9A9
:1028400010BD00009C02002070B504460D460948EA
:10285000C07A10B90848058002E0FF2006490880C8
:102860000548028821460548FDF71BFD052004495F
:10287000087070BD80020020BC020020EC0800201F
:10288000A002002010B50448007810B9FEF7E2FD60
:1028900010BDFFF705FAFBE71802002070B50446EB
:1028A0000D4601222946204600F001F870BD2DE9B1
:1028B000F04105460E461746FEF7DCFC05F07F00AA
:1028C000FEF786FD002404E0FEF75EFD3055601C37
:1028D000C4B2BC42F8DBFEF7C5FCBDE8F0810000E5
:1028E00010B5002401210348FDF78FFF0446204660
:1028F00010BD00000010014000207047002070470C
:10290000002070470020704770B504460D462A46E7
:1029100021460020FFF7CBFF70BD000010B5044832
:10292000007810B9FFF750F810BDFFF709FDFBE77D
:102930001802002010B5012000F090F8022000F0ED
:10294000A9FF002000F08AF8062000F0A3FF10BDC8
:1029500070B504460D460448007818B12946204653
:10296000FEF760F870BD00001802002010B50348A3
:10297000007808B1FEF7BCF810BD00001802002076
:1029800010B5044629480078A04200D110BD274860
:10299000047027480470007801282BD10020FFF72D
:1029A00085FD24480068407800F07F0040F08000FA
:1029B0002049096848701F4800684178012000F0EC
:1029C00095F80120FFF772FD00201A49096881F887
:1029D0003F001849096881F8400002221548016843
:1029E0003F31402000F08AF86F2213490120FFF7A1
:1029F0005EFF18E00020FFF759FD0E4800684078A0
:102A000000F07F000B49096848700A480068417867
:102A1000012000F06BF80120FFF748FD6F22064906
:102A20000120FFF744FF00BFB0E7000019020020BB
:102A3000180200209C0200207D07002010B50446EB
:102A40000548007818B92046FEF7E4FF02E020466A
:102A5000FFF72CFD10BD00001802002010B5044641
:102A6000012C02D1FEF7A8F901E0FEF79BF910BD99
:102A700070B504460D460648007820B92946204620
:102A8000FEF7FEFF03E029462046FFF7DDFE70BD9E
:102A90001802002010B50548007818B90120FEF78B
:102AA000E9FF02E00120FFF759FE10BD18020020E7
:102AB00070B504460D460648007818B9FEF7CAFC02
:102AC000C0B270BD29462046FEF76CF8F9E7000059
:102AD0001802002010B504460348007810B12046C3
:102AE000FEF7DCF810BD00001802002013B5044604
:102AF000012201A9204600F001F81CBD2DE9F0419A
:102B000005460E461746FEF7B5FB45F08000FEF77A
:102B10005FFC002404E0305DFEF75AFC601CC4B288
:102B2000BC42F8DBFEF79EFBBDE8F08170B50446C1
:102B30000D462A4621460020FFF7E0FF70BD10B584
:102B400000F002F810BD00000CB5002001900090CC
:102B50003348006840F480303149086000BF304895
:102B6000006800F4003000900198401C019000982B
:102B700018B90198B0F5A06FF1D12948006800F4A8
:102B8000003010B10120009001E00020009000987A
:102B9000012843D12348006840F010002149086013
:102BA0000846006820F0030008600846006840F00E
:102BB000020008601A4840681949486008464068A1
:102BC00048600846406840F48060486008464068B5
:102BD00020F47C1048600846406840F4E8104860E3
:102BE0000846006840F08070086000BF0C4800682C
:102BF00000F000700028F9D00948406820F0030078
:102C0000074948600846406840F00200486000BF3D
:102C10000348406800F00C000828F9D10CBD000002
:102C2000001002400020024010B5FEF7A3F800F0AB
:102C300001F810BD08B501211020FEF7E7F80120CA
:102C4000ADF8000004208DF8030069460348FDF745
:102C500051FD01210148FDF7E3FD08BD00100140D1
:102C600010B5FEF71BFBFEF7B7FA0149086010BD6F
:102C7000100000207047000010B51348006840F0B5
:102C800001001149086008464068104908400E4993
:102C90004860084600680E4908400B49086008462D
:102CA000006820F4802008600846406820F4FE0098
:102CB00048604FF41F008860FFF741FF4FF000604D
:102CC0000449086010BD0000001002400000FFF839
:102CD000FFFFF6FE08ED00E010B50121880700F0C7
:102CE0001BF928B10121880700F012F800F0D6FC8A
:102CF00010BD21B1028842F08002028004E0028807
:102D00004FF67F731A4002807047CA4302827047B1
:102D1000CA430282704721B1028842F00102028058
:102D200004E002884FF6FE731A40028070470000EC
:102D300010B504466848844208D10121C014FEF74A
:102D400075F80021E014FEF771F8C4E0B4F1804F8B
:102D500008D101210846FEF749F800210120FEF7BD
:102D600045F8B8E05D48844208D101210220FEF711
:102D70003DF800210220FEF739F8ACE058488442C3
:102D800008D101210420FEF731F800210420FEF7CC
:102D90002DF8A0E05348844208D101210820FEF715
:102DA00025F800210820FEF721F894E04E488442DF
:102DB00008D101211020FEF719F800211020FEF79C
:102DC00015F888E04948844208D101212020FEF707
:102DD0000DF800212020FEF709F87CE044488442E9
:102DE00008D101214014FEF721F800216014FEF7FC
:102DF0001DF870E03F48844209D10121C804FEF764
:102E000015F800214FF40020FEF710F863E03A486F
:102E1000844209D101210805FEF708F800214FF48A
:102E20008010FEF703F856E03448844209D10121AE
:102E30004805FDF7FBFF00214FF40010FDF7F6FFFA
:102E400049E02F48844208D101214020FDF7CEFF00
:102E500000214020FDF7CAFF3DE02A48844208D106
:102E600001218020FDF7C2FF00218020FDF7BEFF79
:102E700031E02548844208D101218015FDF7B6FFD5
:102E80000021A015FDF7B2FF25E02048844209D1BA
:102E900001210804FDF7CAFF00214FF48030FDF73F
:102EA000C5FF18E01A48844209D101214804FDF702
:102EB000BDFF00214FF40030FDF7B8FF0BE01548CF
:102EC000844208D101218804FDF7B0FF00214FF4AE
:102ED0008020FDF7ABFF10BD002C01400004004036
:102EE00000080040000C00400010004000140040AA
:102EF00000340140004C01400050014000540140AA
:102F000000180040001C004000200040004001402C
:102F1000004401400048014030B502460020002333
:102F20000024158A05EA0103958905EA010413B115
:102F30000CB1012000E0002030BD1AB183890B43A1
:102F4000838102E083898B438381704701894FF637
:102F5000F872114001817047002202881D4B98428F
:102F60000ED01D4B98420BD0B0F1804F08D01B4BB8
:102F7000984205D01A4B984202D01A4B984204D17D
:102F80004FF68F731A404B881A43174B984207D05D
:102F9000164B984204D04FF6FF431A40CB881A4391
:102FA00002808B8883850B8803850A4B98420BD05F
:102FB000094B984208D00E4B984205D00D4B9842D1
:102FC00002D00D4B984201D10B7A038601238382F4
:102FD00070470000002C0140003401400004004014
:102FE00000080040000C00400010004000140040A9
:102FF00000400140004401400048014010B5082154
:103000003A4800F0A3F838B10821384800F07AF8BF
:10301000364800F063F93EE040F22551334800F0B5
:10302000A2F8002837D0314800F058F9304908702C
:1030300030488078FB2827DA2E48007810B1012824
:1030400020D111E000202B49887029480078897828
:10305000294A505427488078401C2649887000200F
:103060000873012008700EE0214800782149897812
:10307000214A50541F488078401C1E498870002007
:10308000087300E000BF06E000201A4988700120A4
:1030900048700020087340F22661144800F063F87D
:1030A00018B31448007803281AD1124840791149FE
:1030B000097988420BDA0F4842794079401C0D4B60
:1030C00058710E48815C094800F00DF908E00020B5
:1030D0000849487108704FF400710948FDF79EFBDC
:1030E00040F22661014800F016F810BD004800408B
:1030F000D9020020EC09002026050020250600202A
:10310000000C014001F40072B2F5007F00D100BF55
:10311000CA430280704710B50022002340F66A14AB
:10312000A14200D100BF0A1201249440A3B2DC43A3
:10313000048010BD21B1828942F40052828104E0F2
:1031400082894DF6FF731A40828170470246002043
:10315000B1F5007F00D100BF13880B400BB10120F7
:1031600000E00020704770B50246002400230025CF
:10317000002040F66A16B14200D100BFC1F34215EB
:1031800001F01F03012606FA03F3012D02D19689EF
:10319000334006E0022D02D1168A334001E0968AC0
:1031A00033400C12012606FA04F41688344013B199
:1031B0000CB1012000E0002070BDF0B503460024F2
:1031C00000260025002040F66A17B94200D100BF52
:1031D0001846C1F3421401F01F06012707FA06F54D
:1031E000012C01D10C3004E0022C01D1103000E0A0
:1031F00014301AB107682F43076002E00768AF4335
:103200000760F0BD2DE9F04786B005460E46002464
:10321000A24600BFA1460027B08900B100BF2F46DB
:103220002C8A4CF6FF700440F08804432C82AC8951
:103230004EF6F3100440B088318908437189084381
:103240000443AC81AC8A4FF6FF400440B08904438C
:10325000AC8201A8FDF754FE1F48874202D1DDF879
:1032600010A001E0DDF80CA0A88900F4004040B1F6
:103270000AEBCA0000EB0A1031684900B0FBF1F814
:1032800007E00AEBCA0000EB0A1031688900B0FBC6
:10329000F1F86420B8FBF0F004012009642101FB7F
:1032A0001089A88900F4004040B1322000EBC90029
:1032B000B0FBF1F000F00700044308E0322000EB1F
:1032C00009106421B0FBF1F000F00F0004432C81E1
:1032D00006B0BDE8F087000000380140014688884C
:1032E000C0F308007047C1F30802828070470000F5
:1032F00070B57048847822466F497048FCF7D1FF5A
:103300006C48807817287DD16A48807869490871AF
:1033100000200870887069480078AF2873D167482A
:103320004078AF28FAD165480079AF28F6D16348D4
:10333000407D0D28F2D16148807D0A28EED15F489A
:103340008079012802D0022877D139E018225C491F
:103350005C48FDF73FF95948007A59498870574849
:10336000407AC8705548807A88715448C07AC871CC
:103370005248007B08725148407B48724F48807B1E
:1033800088724E48C07BC8724C48007C08734B481A
:10339000407C48734948807C88734848C07CC87327
:1033A00018224848FDF757F94749096808688047D7
:1033B00045490968886A80470120444908703DE012
:1033C00018223F493F48FDF705F922463B4940484E
:1033D000FCF767FF00203E49487102208871384899
:1033E000807808723648C07848723548807988728B
:1033F0003348C079C8723248007A08733048407A3E
:10340000487301E01BE054E02D48807A88732C4813
:10341000C07AC8732A48007B08742948407B4874E6
:103420002748807B88742648C07BC87400F06EF9FA
:1034300002202649087001E0FFE700BF39E01D487F
:10344000407868BB1E48807B22490870084644705B
:10345000002506E01848415DA81C1E4A1154681C4E
:10346000C5B2A542F6DBA01CC1B21A48FDF716F89A
:1034700006463112174AA01C1154E01C1654164877
:103480000068401C14490860201DC1B20E48006845
:10349000026B104890470C490968886A804702E02F
:1034A00000200449487000200249087003200749A1
:1034B000087070BDEC09002026050020FB0A0020E2
:1034C00024070020005000081000002014000020F5
:1034D000FA0B0020270400200C0000202DE9F04109
:1034E00004460D4616461F4600F0C6F800F076F872
:1034F0003B4632462946204600F00CF8FDF716FA06
:10350000002003490870487048718860BDE8F08168
:10351000EC0900202DE9FF4104460D4616461F46E2
:103520000094ADF80670ADF80850ADF80460DFF80F
:10353000A8800020ADF80C000C20ADF80A00694608
:103540004046FFF75FFE00214046FFF7F3FD0022F3
:1035500040F226614046FFF730FE002240F225513E
:103560004046FFF72AFE08214046FFF7EFFD70B9FD
:1035700004214046FFF7EAFD48B902214046FFF723
:10358000E5FD20B901214046FFF7E0FD90B108219B
:103590004046FFF7B7FD04214046FFF7B3FD022187
:1035A0004046FFF7AFFD01214046FFF7ABFD404627
:1035B000FFF794FE012240F225514046FFF7FDFD42
:1035C000012240F226614046FFF7F7FD0121404607
:1035D000FFF7B0FDBDE8FF810048004008B50121BC
:1035E0000820FDF713FC01218804FDF7EFFB4FF4E1
:1035F0008060ADF8000003208DF8020018208DF8DF
:10360000030069460748FDF775F84FF40060ADF810
:10361000000004208DF8030069460248FDF76AF8AF
:1036200008BD0000000C014010B54FF400710D48BA
:10363000FDF7F6F803200C4908700C48FCF706FE6D
:103640000446224609490A48FCF72BFE06484279FF
:103650004079401C044B58710548815C0548FFF7D0
:1036600042FE10BD000C0140EC090020C002002009
:10367000250600200048004008B527208DF80000EE
:103680000D208DF8020000208DF8010001208DF83A
:1036900003006846FDF720FB08BD00000A480078DB
:1036A000012810D10948007801280CD10648007B78
:1036B0000A2803DD02200449087004E00248007B68
:1036C000401C014908737047EC09002014000020D9
:1036D00010B54FF400710948FDF7A2F8032008491E
:1036E0000870084642794079401C0B4658710548DD
:1036F000815C0548FFF7F7FD10BD0000000C01409C
:10370000EC090020250600200048004010B54FF4C9
:1037100000710B48FDF784F803200A49087017224E
:1037200009490A48FCF7BDFD064842794079401C2A
:10373000044B58710548815C0548FFF7D4FD10BD66
:10374000000C0140EC090020FA0B002025060020A7
:103750000048004010B5182233493448FCF73AFFBE
:103760003148807809282ED2DFE800F02D050A0FB5
:1037700014191E2328002EA12F48FCF786FD23E0F4
:103780002EA12D48FCF781FD1EE02EA12A48FCF752
:103790007CFD19E02DA12848FCF777FD14E02DA150
:1037A0002548FCF772FD0FE02CA12348FCF76DFDC6
:1037B0000AE02CA12048FCF768FD05E02BA11E487B
:1037C000FCF763FD00E000BF00BF1748C07820B1E0
:1037D00001280BD003281BD111E026A11648FCF7C5
:1037E00054FD25A11448FCF750FD12E023A1124816
:1037F000FCF74BFD22A11048FCF747FD09E021A191
:103800000D48FCF742FD1EA10B48FCF73EFD00E011
:1038100000BF00BF1CA10848FCF737FD19201B4959
:103820000871FFF701FF10BD2407002000500008B9
:103830002020203132303000C002002020202032F1
:10384000343030002020203438303000202020391F
:1038500036303000202031393230300020203338EB
:1038600034303000202035373630300020313135CB
:1038700032303000204E000020380000204500008B
:1038800020370000204F000020310000EC0900200C
:1038900000BFFEE70022002107E0521C002100E0EB
:1038A000491C41F211139942FAD38242F5D3704771
:1038B00008B500200090FDF7C9FAFDF702FAFDF700
:1038C00091F800231A4619464FF41650FFF706FEEA
:1038D000FFF7C6F9FDF746F80020474908708AE06F
:1038E00045480078072875D2DFE800F0042D6B7892
:1038F0007C577500FFF72EFF00BF40480078002876
:10390000FBD13F4C64793F4D35F814303C4C247961
:103910003D4D35F814203A4CE4783C4D35F8141000
:10392000374CA4783A4D55F82400FFF7F3FD394998
:1039300009680868804737490968886A8047012014
:103940002D49087056E03349096888698047012885
:103950000BD12A48007840B90520274908702E4825
:103960000068401C2C49086016E0244800780228B2
:1039700008D106202049087028480068401C2749C3
:10398000086009E01C480078042805D01B4800782E
:10399000042801D1184908702CE01E4800686946C7
:1039A000C26A1F4890479DF80000FF2808DA1949AD
:1039B0000968886A80479DF800101948FDF7B6FB32
:1039C00018E000BF0D4800780028FBD101200A490B
:1039D00008700FE00DE0FFF78BFC0BE001200649BB
:1039E000087007E0002005490870012002490870AE
:1039F00000E000BF00BF73E714000020EC090020C6
:103A000024070020000300200E03002008030020EC
:103A1000DC02002010000020000000200400002034
:103A20002803002010B591EA030F48BF83F000433C
:103A300000F18683841A71EB030C05D2121943EB53
:103A40000C03001B61EB0C01DFF824E14FEA115479
:103A5000A4EB135C1EEA430F18BF9EEA445F73D0C9
:103A600023EA0E03DCF1200E21EA045143F4801313
:103A700032D322FA0CFE10EB0E0023FA0CFE41EBBF
:103A80000E01CCF1200E03FA0EFE10EB0E0051F1E8
:103A90000001B1F5801FCCF1200E32D201EB0451B0
:103AA00012FA0EF2BDE8104058BF7047401C38BFF4
:103AB0005FEA420218BF7047002814BF20F00100DF
:103AC00041F100014FEA410313F5001F38BF704771
:103AD000A1F1C04100F026BB012A43EB0302ACF187
:103AE000200CDCF11F0E32BF4FF0000E23FA0CF356
:103AF00010EB030041EB0451B4EB115FD0D0A1EB0C
:103B0000045101F5801149085FEA300001EB0451CE
:103B10000ED350F1000038BF12FA0EFE08D1BDE8F6
:103B20001040C9E7401C38BF5FEA4202CAD1C3E770
:103B3000BDE810404FEA410313F5001F38BF70473E
:103B4000A1F1C04100F0EEBA9EEA445F08D011EA4C
:103B50005E0FBDE8104004BF01F000410020704737
:103B6000BDE8104070B500F08FFA00BF64FBBE3EA8
:103B70000000E0FF2DE9C04130B4DFF8A0C23CEA0C
:103B8000111418BF3CEA131400F0EC8081EA03051D
:103B90001CEA111444EAD57418BF1CEA131500F08E
:103BA000C780A4EB05044FF0004545EAC12145EA72
:103BB000C32341EA505143EA525304F17F749942BE
:103BC00004F500344FEAC0204FEAC22208BF9042F9
:103BD00000F09C804FEA13650FF24016765D4FEAC5
:103BE000134506FB05F7C7F1807706FB07F74FEA99
:103BF000D737A7FB03687642C8F58038A7FB06CE07
:103C000038BFA8F1010807FB08E64FF0000EA6FB3D
:103C1000028CE6FB03CEDCF1000CCEF1004E38BF87
:103C2000AEF1010EA6FB0C584FF000074FF0000557
:103C3000E6FB0E87A1FB08C6A0FB07CE16EB0E061F
:103C400045F10005E1FB076515F1E04E7EBFA4F5E7
:103C500080345FEA46066D4116F1800745F10005A4
:103C60004FEA17274FEA066647EA0567A6F1DE46E0
:103C7000B6F1805F4FEA15251FD9384624F0010CB4
:103C800005EBC471BCF1FE6F01EB0C1102D8F0BC66
:103C9000BDE8008124425CBF01F5801E9EEAC47F1E
:103CA00002D4F0BCBDE80081244238D4F0BCA1F1BC
:103CB000C041BDE8004100F035BA4FEAD22242EAE5
:103CC00043524FEAD323A7FB02864FEAD02040EAB3
:103CD000415007FB03661EEA0E0F4FEAD12105FB98
:103CE000026658BFA6EB0056B6EB00564FEA520EDE
:103CF0004EEAC37E18EB0E0E56EB530EBDD518EBF5
:103D000002085E417F1C55F10005B6E74FF48015AF
:103D10004FF000074FF000064FF00008ADE7F0BC91
:103D20004FF0000001F1C04101F00041BDE8008109
:103D300011EA0C1F0CEA131500D00CE013EA0C1F5B
:103D400000F025804FF00000F0BC81EA030101F093
:103D50000041BDE80081F0BCBDE8004181EA0301FB
:103D600000F0E0B9F0BCBDE8004170B500F08CF99E
:103D7000097EFC3E00F007B881EA03014FF0000025
:103D800001F00041704781EA030100F0CBB9F0BCBB
:103D9000BDE800414FF0000021497047FFFDFBF9ED
:103DA000F7F5F4F2F0EEEDEBE9E8E6E4E3E1E0DE6E
:103DB000DDDBDAD8D7D5D4D3D1D0CFCDCCCBCAC8E0
:103DC000C7C6C5C4C2C1C0BFBEBDBCBBBAB9B8B707
:103DD000B6B5B4B3B2B1B0AFAEADACABAAA9A8A8FA
:103DE000A7A6A5A4A3A3A2A1A09F9F9E9D9C9C9BC8
:103DF0009A99999897979695959493939291919073
:103E00008F8F8E8E8D8C8C8B8B8A89898888878703
:103E10008685858484838382828181800000FF0778
:103E20000000F87F4FEA41034FEA5353A3F5806344
:103E3000D3F11E03C8BFD3F1210C0CDD4FF00042BB
:103E400042EAC12242EA505232FA03FC8CEAE17C97
:103E5000ACEBE1707047102BC4BF0020704703F536
:103E6000787CBCF1FF3F04D06FF0004282EA210071
:103E7000704770B500F008F949922480002070471F
:103E8000F2E700004FEA1153A3F58063D3F11E035C
:103E9000A8BFD3F1200C08DB4FF0004242EAC12258
:103EA00052EA505232FA03F0704709420BD4102BF9
:103EB000C4BF0020704703F5787CBCF1FF3F05D0FC
:103EC0004FF0FF3070474FF00000704770B500F0C2
:103ED000DBF800BF4992248000207047F0E710F023
:103EE000004248BF4042B0FA80F310FA03F10AD012
:103EF000C3F11D0303F580634FEA415002EB035207
:103F000002EBD12170474FF000007047B0FA80F308
:103F100010FA03F10AD0C3F11D0303F580634FEAE1
:103F200041504FEA035202EBD12170474FF000009D
:103F300070470000DFF848C170B51CEA111E1EBFB3
:103F40001CEA13159EEA0C0F95EA0C0F00F06F8027
:103F500081EA030423EA4C134EEAD47E21EA4C1191
:103F600041F4801143F48013AE44A1FB024CA0FB4A
:103F70000365AEF17F7E361955EB0C05A1FB034CB2
:103F80004CF10003A0FB021C16EB0C06654153F13B
:103F90000003094218BF46F0010613F4007F0BD15D
:103FA0004FEA03314FEA0530340341EA155140EA44
:103FB00016506FF003020AE04FEAC3214FEAC52012
:103FC000F40241EA555140EA56506FF0020202EB0A
:103FD0002E4201EB025585EACE710AD05FEA440C0D
:103FE00018BF24F0004450F1000041F1000120EA24
:103FF000D47040F2FE7C624500D270BDA84214BF6E
:104000004FF080444FF04044002E08BF0024BEF122
:10401000806FA8BFA1F1C041BDE8704080F28280EE
:104020004FF0000001F1C04101F0004170479EEAED
:104030000C0F0CEA131518BF95EA0C0F06D04FF0C1
:10404000000081EA030E0EF0004170BD00F01CF884
:104050008900013E00F007B800F009B84FEA430CB0
:104060005FEA5C5C08D081EA030100F05BB84FEACC
:10407000410C5FEA5C5CF6D14FF0000001497047EB
:104080000000FF070000F87F0EF1020E2EF0030E75
:104090005EF8046B364205D4012A43EB030515F59F
:1040A000001F12D8012841EB010C1CF5001F0CD891
:1040B0000ED14FEAD17C15F5001F0CEB4C0C0CF126
:1040C000020C08BF4CEBD37C04E04FF0080C01E07D
:1040D0004FEAD37C0CEB4C0526FA05F606F00706F2
:1040E000B6F1040C06D20EEB860CBDE870404CF025
:1040F000010C6047DFE80CF0090B02024FF00041B1
:104100004FF00000A1F5002170BD194610460128AE
:1041100051EB010418BFD4F5001484BF002001F056
:10412000004170BD0808A0F500114FEA3101704749
:1041300010B591EA030F48BF83F000433FF57AAC16
:10414000841A71EB030C07D212198CF0004C43EB6C
:104150000C03001B61EB0C01DFF8A4E14FEA1154E2
:10416000A4EB135C1EEA430F18BF9EEA445F00F005
:10417000B08023EA6E03524221EA0451C3EB6E037E
:1041800038BF5B1EDCF1200E25D322FA0CFE10EBAB
:104190000E0043FA0CFE41EB0E01CCF1200E03FAA7
:1041A0000EFE10EB0E0051F10001CCF1200E29D4CF
:1041B00012FA0EF201EB0451BDE8104058BF7047EF
:1041C000401C1CBFB2F1004F704700280CBF491CB7
:1041D00020F00100704712EB020E43EB030218BF00
:1041E0004FF0010E4EEA4202ACF1200CDCF11E0E43
:1041F00054D943FA0CFE10EB0E0051F1FF31CCF113
:104200001E0ED5D50EF1010E12FA0EFE404141EB05
:10421000010101EB445C5FEA5C5C10D910EBDE70DD
:1042200001EB045138BFBEF1004FBDE8104018BF8C
:10423000704700280CBF491C20F00100704730D2A5
:104240004FEAD42C11F5001124F400641BD0B1FA0C
:1042500081F20B3AA41AA41ED2F12003914030FA45
:1042600003F31943904001EBCC71002C01EB045196
:10427000BDE81040A8BF704701F1C0414FF00000F9
:1042800001F000417047B0FA80F310FA03F100D159
:1042900010BDE41A173C4805C90AE4E701EB0451D4
:1042A00010BD491001EB0451BDE810404FEA300049
:1042B00002E04FF0000170474A0008BF0042F8D00A
:1042C000B2F5001F28BF704701F000414FF0000019
:1042D00070479EEA445F07D011EA5E0FBDE81040C8
:1042E00004BF002100207047BDE8104070B5FFF703
:1042F000CBFE00BF40DFF63E83F000411046704722
:104300000000E0FF00000000417574196F240F40A9
:104310002EBAACDA271210404032C4C178C6104021
:10432000661330AC68461140E029CEF6B9FA114068
:104330000101CEFEA97A12408021D82BFB2E13401A
:104340002019E2603C631440C010EC957D97154045
:104350006008F6CABECB164000000000006063C0D3
:1043600000000000006063C000000000006063C047
:1043700000000000006063C000000000006063C037
:1043800000000000006063C000000000006063C027
:1043900000000000006063C000000000006063C017
:1043A00000000000006063C00000000000C062C0A8
:1043B0000000000000C062C00000000000C062C039
:1043C0000000000000C062C00000000000C062C029
:1043D0000000000000C062C00000000000C062C019
:1043E0000000000000C062C00000000000C062C009
:1043F0000000000000C062C020AEA036E07D0B3798
:10440000A017083660F0AF3660F0AF36403D2E366C
:10441000C0AFD235000D993620A5633680A3313761
:104420004061223760DE353640466B36A032BF36FB
:10443000A032BF36A00ECB35E0625436A0443937E7
:10444000A00ECB35809AF436001F1337E050DA35D2
:1044500040466B36809AF43680A33137807F3D36F4
:104460000016D636A03BFC36C0C14C36809AF436D6
:1044700060DE353680A33137809AF4368091B736C6
:1044800060022A3700FB1E3660F0AF36A044393791
:10449000209C2636000D993660D5F835000D9936EA
:1044A000C0AFD2354034F135C0CA893640466B368C
:1044B000C0B80F36807F3D36A044393760022A37B6
:1044C000C0C14C361850000800000020280300002E
:1044D0006C010008B051000828030020501B0000A8
:1044E000C8010008000000000000000000000000FB
:1044F00000000000000000000000000000000000BC
:1045000000000000000000000000000000000000AB
:10451000000000000000000000000000000000009B
:10452000000000000000000000000000000000008B
:105000000118050100007580140A0109000001144F
:10501000000000000000CDC101162808C181400138
:10502000C0804104690C2908E918A91C091A300933
:105030001638093660092E70092F6000FF00C0C1C4
:1050400001C30302C2C60607C705C5C404CC0C0DC4
:10505000CD0FCFCE0E0ACACB0BC90908C8D8181974
:10506000D91BDBDA1A1EDEDF1FDD1D1CDC14D4D5D4
:1050700015D71716D6D21213D311D1D010F0303164
:10508000F133F3F23236F6F737F53534F43CFCFD04
:105090003DFF3F3EFEFA3A3BFB39F9F83828E8E994
:1050A00029EB2B2AEAEE2E2FEF2DEDEC2CE4242514
:1050B000E527E7E62622E2E323E12120E0A0606184
:1050C000A163A3A26266A6A767A56564A46CACAD44
:1050D0006DAF6F6EAEAA6A6BAB69A9A86878B8B9F4
:1050E00079BB7B7ABABE7E7FBF7DBDBC7CB4747554
:1050F000B577B7B67672B2B373B17170B0509091A4
:10510000519353529296565797559594549C5C5D83
:105110009D5F9F9E5E5A9A9B5B9959589888484913
:10512000894B8B8A4A4E8E8F4F8D4D4C8C44848593
:10513000458747468682424383418180B24027802B
:10514000A1031C80252350C3321414A0860114F03F
:105150004902540101FF0223200A120114591529A2
:10516000602D14090A020F32045A64040A23804C89
:10517000000E150101416E796C696E6B4D494E4907
:105180001AB0552360091BC0125419C811324B3292
:105190009632E13AC24E1A10C53A307F3A060E29CD
:1051A000582C020304042009060708090204060813
:0400000508000131BD
:00000001FF
